:020000022000DC
:10600000000001204DA7020075A702000D700200DC
:1060100079A702007BA702007DA702000000000014
:106020000000000000000000000000007FA7020048
:1060300081A702000000000083A7020085A70200DC
:106040006D7C020087A70200358102009188020062
:106050002584020087A702009D7F02007D82020046
:10606000618802007188020087A7020087A70200EA
:1060700087A7020087A7020087A7020087A7020060
:1060800087A70200916A020087A7020087A7020083
:106090002D6B020087A702009D99020087A70200CE
:1060A00087A7020087A7020087A7020087A7020030
:1060B0003582020087A702000000000000000000F7
:1060C00087A70200458202005582020087A70200CE
:1060D00087A7020087A7020087A702000000000030
:1060E00000000000000000000000000000000000B0
:1060F00000000000000000000000000000000000A0
:10610000000000000000000000000000000000008F
:10611000000000000000000000000000000000007F
:10612000000000000000000000000000000000006F
:10613000000000000000000000000000000000005F
:10614000000000000000000000000000000000004F
:10615000000000000000000000000000000000003F
:10616000000000000000000000000000000000002F
:10617000000000000000000000000000000000001F
:10618000000000000000000000000000000000000F
:1061900000000000000000000000000000000000FF
:1061A00000000000000000000000000000000000EF
:1061B00000000000000000000000000000000000DF
:1061C00000000000000000000000000000000000CF
:1061D00000000000000000000000000000000000BF
:1061E00000000000000000000000000000000000AF
:1061F000000000000000000000000000000000009F
:106200000348044B834202D0034B03B11847704745
:10621000C4A20020C4A200200000000005480649D6
:106220000B1AD90F01EBA301491002D0034B03B1A4
:1062300018477047C4A20020C4A20020000000003C
:1062400010B5064C237843B9FFF7DAFF044B13B1BE
:106250000448AFF300800123237010BDC4A20020C6
:10626000000000002C33030008B5044B1BB10449A7
:106270000448AFF30080BDE80840CFE7000000000D
:10628000C8A200202C330300A3F5803A704700BF5A
:10629000154B002B08BF114B9D46FFF7F5FF002162
:1062A0008B460F461148124A121A04F05BFB0C4B46
:1062B000002B00D098470B4B002B00D098470020B4
:1062C000002104000D000B4804F05EFA04F08CFA83
:1062D0002000290000F06CF804F05CFA00000800CF
:1062E000000000000000000000000120C4A2002007
:1062F00050B40020B5A7020070B52349044604F04D
:106300007DF830B3214E708840BA80B20AF092FD19
:106310001F4B00220AF022FF0BF0CEF80546308812
:1063200040BA80B20AF086FD194B00220AF016FF2F
:106330000BF0C2F80AF090FD02460B46154804F037
:1063400071FB28460AF088FD02460B46124804F00D
:1063500069FB1249204604F051F870B1104804F06E
:1063600061FB104B1B784FF0A0444FF000752BB130
:106370000D4804F057FBC4F80C5570BD0B4804F0F1
:1063800051FBC4F80855F8E7EE980020E0A2002081
:1063900000005940681803008E180300B8980020C8
:1063A000B1180300EC980020D3180300E418030090
:1063B00070B5274C94E80F008CB004AD103485E81C
:1063C0000F0094E80F0008AE86E80F0000231A467D
:1063D0003146284601F01AF818B11E4A572100F03C
:1063E00004FB284600F066F800211B481B4C00F017
:1063F000D9F81B4804F016FB4FF0A0430322C3F862
:106400006427184803F0EAFE174B1860204603F093
:1064100045FF164BCDE90243154B0193042301219F
:10642000009300231A46084603F05CFF114BCDE9A8
:106430000243114B01930121002300911A460846A3
:1064400003F050FF03F0E0FF03F0BCFEFCE700BFE9
:106450002C190300F6180300FD180300C49800204F
:106460000B190300A8980020C0B30020EE9800206C
:10647000E0A20020B8980020EC9800201FB5002270
:106480000091022369460430CDE90132039202F003
:1064900009F905B05DF804FB38B5054D0A2445F04F
:1064A00001054FF47A40A847013CFAD138BD00BF3E
:1064B000B019030037B5394D0E2301A92860ADF896
:1064C0000430FFF7DBFF0446002858D0344A182177
:1064D00000F08BFA204603B030BDFFF7DDFFF9E78F
:1064E000FFF7DAFF40232868ADF8043001A9FFF771
:1064F000C5FF04460028F0D0294A5421E8E7FFF7F9
:10650000CBFF44F203032868ADF8043001A9FFF77C
:10651000B5FF04460028E3D0214A4A21D8E7FFF717
:10652000BBFF4FF400432868ADF8043001A9FFF722
:10653000A5FF04460028E2D0194A4021C8E7FFF72A
:10654000ABFF48F201032868ADF8043001A9FFF75A
:1065500095FF04460028E2D0114A3621B8E7FFF73C
:106560009BFF4FF480432868ADF8043001A9FFF782
:1065700085FF04460028E2D0094A2C21A8E7FFF74E
:106580008BFF02232868ADF8043001A9FFF776FFDE
:1065900004460028E3D0024A222199E7E4A2002021
:1065A0004C1903002DE9F34107460C4604F068FB43
:1065B000102806463CD85CBB2023ADF80430204BA5
:1065C00001A91868FFF75AFF0446C8B9DFF87080C0
:1065D0000025B54238BF7B5DD8F8000028BF2023D6
:1065E0009A0862F07F029B0101A98DF804208DF8C2
:1065F0000530FFF743FF0446F0B1124A8E2101E057
:10660000104A6D2100F0F1F9204602B0BDE8F0819A
:10661000012C0FD13023ADF80430094B01A91868C3
:10662000FFF72CFF04460028D0D0064A7521E9E781
:106630000924E9E70B24E7E70135102DC9D1E3E789
:10664000E4A200204C19030038B5054D044645F07E
:1066500001054FF47A40A847013CFAD138BD00BF8C
:10666000701A030070B5054686B00E46144672B621
:1066700001F06AF900F0CAFF0028FBD13E4804F09F
:10668000D1F944F201039D4266D00AD8012D12D0FF
:1066900041F201039D425DD03146384804F0C2F911
:1066A0000CE044F202039D42F6D12288616834482E
:1066B00004F0B8F902E0334804F0B4F901F07AFBD1
:1066C00008B901F03FFB0023ADF814308DF8163007
:1066D00005A9012319208DF8153001F075FB05A9D6
:1066E000182001F071FB05A9172001F06DFB19209E
:1066F00001F026FC182001F023FC172001F020FCFB
:106700004FF4FA70FFF7A0FF192001F0EBFB1820FF
:1067100001F0E8FB172001F0E5FB3220FFF794FFC2
:10672000192001F00DFC182001F00AFC172001F0DF
:1067300007FC4FF4FA70FFF787FF192001F0D2FB36
:10674000182001F0CFFB172001F0CCFBFA20FFF757
:106750007BFFCCE70C48AFE7A1680391084601F046
:1067600031FA23680196009302466368039907484B
:1067700004F058F9A2E700BFB6190300531A03004A
:106780000E1A0300CF190300EC190300291A0300A5
:1067900007B501F00FFB08B901F0D4FA0023ADF8FA
:1067A00004308DF8063001A9012319208DF8053039
:1067B00001F00AFB01A9182001F006FB01A917202E
:1067C00001F002FB192001F0BBFB182001F0B8FB1F
:1067D000172001F0B5FB4FF4FA70FFF735FF1920D1
:1067E00001F080FB182001F07DFB172001F07AFBFF
:1067F0003220FFF729FF192001F0A2FB182001F039
:106800009FFB172001F09CFB4FF4FA70FFF71CFF71
:10681000192001F067FB182001F064FB172001F03C
:1068200061FBFA20FFF710FFCCE70369C1688B42D8
:106830009DBF8268D21802F1FF3203F1FF3394BF8B
:10684000501A581A70472DE9F843D0E902940546CA
:10685000A9EB04084068904520440F46144404D92D
:1068600003F0E6FFEC60BDE8F8834246A4EB0904C0
:1068700003F0DEFF6868224607EB0801F0E72DE928
:10688000F843C5680646894617464FF00008346944
:10689000B3687068A54228BFE418013C621B5C1B0A
:1068A000BC4228BF3C46944228BF1446494628446F
:1068B000224603F0BDFFB3682544AB4208BF002564
:1068C0003F1BA044A144F560E1D14046BDE8F883F8
:1068D00010B5114C114AA2610223C4E90433104BD4
:1068E000E361A2644FF400730E4A0F492362E2642D
:1068F00000231022E01DA3626362E362A365636567
:10690000E365226504F054F90849204604F050F983
:106910002023A37110BD00BFC4B30020761A03006A
:1069200018A7002008A700207F1A0300831A03007D
:10693000F8B5184C182300FB033503FB0040254431
:10694000C46A012C0F4616460FD0022C1AD0F4B997
:106950002846FFF76AFF864205D832463946284660
:10696000FFF771FF34462046F8BD2846FFF75DFF6C
:106970008642344628BF0446224639462846FFF759
:1069800062FFF0E72846BDE8F840FFF778BF002433
:10699000E9E700BFC4B3002073B50E4B1B78044673
:1069A0000D4616460BB9FFF793FF00230DF10700C4
:1069B0008DF8073000F0D2FA324629462046FFF71C
:1069C000B7FF04469DF8070000F0F8FA204602B031
:1069D00070BD00BFC4B3002010B511461C461A4656
:1069E0000020FFF7D9FF204610BD00B583B002900C
:1069F0000091019244F2010071466A46FFF732FEAF
:106A000003B000BD094A537891780133DBB2994253
:106A100008BF0023117899421FBF037050781823D4
:106A200003FB002014BF04300020704718A9002089
:106A300073B5054600240DF107000E468DF807409A
:106A400000F08CFA0DF10600FFF7DCFF90B1067044
:106A5000094B9DF8062045605A709DF8070000F02C
:106A6000ADFA24B9054B4FF48012C3F8002120463B
:106A700002B070BD0424F0E718A9002000E100E096
:106A8000024B4FF43C6043F001031847901A030097
:106A9000F8B51F491F4B0025C1F84051C1F84451BA
:106AA000C1F84851C1F84C51C1F80051C1F8045126
:106AB0001B684BB3D1F8044517490968641A24F0E0
:106AC0007F442F461A68A24209D8A41A15441A7C9A
:106AD000DE691AB1D3E905201F749047AEB90F4A99
:106AE0000F4B11781B788B4205D10133DBB2022B9F
:106AF00008BF0023137012780A4B43F822500A4B48
:106B00004FF48012C3F80021F8BD3346DAE700BF26
:106B10000010014038AA002034AA002031AA002029
:106B200030AA002028AA002000E100E02DE9F04F63
:106B3000A14AA24913780978A14D994285B03CD069
:106B40000133DBB2022B08BF002313709D4912787A
:106B50009D4B0F6853F822003B1823F07F4300221F
:106B60000B602B6816461446944613B942B12B604D
:106B700006E0196881420ED902B12B60091A19602A
:106B800001272B68DFF848A201934FF00008BEB937
:106B9000DFF844B262E0401A0C44D968D3F81CE034
:106BA000C3F800C031B13A1922F07F42C3E9012194
:106BB000DE611E4673460122D7E700263746E0E72E
:106BC0003446F6697F4A63681268DFF810C2A0682D
:106BD000991A21F07F41614500F2A88001442160AB
:106BE000012222742A680023C4E90133E361002AE8
:106BF00040F0A5802C60CAE79BF802105A1CD2B264
:106C000091428BF8002004BF00228BF8002018224C
:106C100002FB03B32A6819799C68022977D00329FB
:106C200000F08180012919D1207CB8B9D968616050
:106C30001A69A2605A69E2609B69A361634B1B7881
:106C4000002B18BF01466160BCE78C4200F09180C8
:106C50008946C9690029F8D1002323749BF80030C4
:106C60009BF801209A42C7D12B68B8F1000F04D1DC
:106C7000019A9A4201D1002F43D0002B41D0D3F882
:106C800000A0534D4F4BD5F804751C68DFF85081B8
:106C90003E1B98F8003026F07F4603369BB94FF430
:106CA0008033C5F84433C5F804334A4B4FF40032FF
:106CB0004FF00109C3F880211A60C5F80090FFF772
:106CC000DFFE88F80090B2452CBF5444A41924F08C
:106CD0007F44C5F84045D5F80435DB1B23F07F43DE
:106CE000E41B033324F07F44A3420AD9D5F80435CA
:106CF000C5F84035FFF7C4FE364B4FF40032C3F8F9
:106D00000021324B00221A7005B0BDE8F08F114609
:106D100091469FE71174D2690123002AFAD1002B12
:106D20009CD02A609AE700231946F6E7D31A23F08D
:106D30007F43834234BFC31A0023236050E7216896
:106D40001368994213D8591A1160E26152E7091A7F
:106D5000D8691A4638B1034618688842F7D3401AF2
:106D60001860184613462160E061DC610FE71346A6
:106D7000F2E74C4511D1D3692B6073B9DFF844E0D9
:106D80000120CDE90212CAF80800CEF800300F4BFE
:106D90001870FFF775FEDDE902120B68C969C9F8C2
:106DA0001C1011B1086803440B602B68934218BF94
:106DB0004FF0010850E700BF30AA002031AA0020A0
:106DC00038AA002034AA002028AA002024AA0020E3
:106DD0000010014000E100E018A90020FEFF7F0044
:106DE00025AA0020F8B5194E194D1A4F4FF400335B
:106DF000C6F8803001244FF48033C5F84833C5F815
:106E000008336C60FFF73CFEAC6000243C60FFF789
:106E100037FE114B1C70114B0B221C809A70104BCB
:106E20001C60104B1C70104B4FF480121C70E02340
:106E3000C6F8802186F814333260C5F8084586F814
:106E40001133D5F804353B602046F8BD00E100E081
:106E50000010014034AA002025AA002018A9002013
:106E600038AA002030AA002031AA0020074B9B78C6
:106E70004BB132B128B10368187C20B959745A61FA
:106E80007047072070470820704700BF18A90020EE
:106E90002DE9F743DFF8848098F8023005460E4666
:106EA0001746ABB3A0B3042930D9436983B3437CFD
:106EB0000024012B0DF107000CBF8946A1468DF877
:106EC000074000F04BF80DF10600FFF79BFDD8B12D
:106ED000012303700F4B4560D3F80435C0E90497D4
:106EE000C0E902369DF8063088F801309DF80700A9
:106EF00000F064F824B9084B4FF48012C3F8002165
:106F0000204603B0BDE8F0830424EFE70724F7E749
:106F10000824F5E70010014000E100E018A9002076
:106F2000064A92783AB130B1426922B10022027425
:106F30000221FFF77DBD0820704700BF18A900207F
:106F4000EFF30583C3F308032BB9EFF31480C043B9
:106F500000F00100704701207047000070B5044642
:106F6000FFF7EEFF012803D01049432002F0D2FFC3
:106F7000EFF3108672B60E4A9068012398B99360B9
:106F80000C4B0D4DD3F8801029401160C3F8805090
:106F9000D3F8841051604FF0FF32C3F88420207082
:106FA00006B962B670BD2370FAE700BF961A0300F7
:106FB0003CB4002000E100E0FC06FFBD10B5044633
:106FC000FFF7BEFF012803D00949512002F0A2FFBC
:106FD000084B9A685AB154B9EFF3108172B6064A59
:106FE00018681060586850609C6001B962B610BDA6
:106FF000961A03003CB4002000E100E0024B1B683D
:107000000021986803F022BD089900201EF0040FAB
:107010001CBFEFF309800AE0EFF308800549064A38
:10702000884201D8904202D88D464FF00000034BB1
:10703000184700000000012000E00020417002001D
:107040002DE9F347054600F07FFC00F0DFFA002849
:10705000FBD12F4C2F48304B241AE40824049F6A9C
:1070600044F00104002D4ED0AA692C49204600F0BE
:107070003DFCEB680193AB68294900932046D5E9B4
:10708000002300F052FCEB6900932649D5E9042364
:10709000204600F03EFC204BDB6A980703D52249CE
:1070A000204600F01FFCDFF89490DFF894A0002643
:1070B0004FF0010808FA06F33B4206D059F82620A3
:1070C0001AB15146204600F011FC01361A2EF1D1BA
:1070D000390605D5104B15495A6B204600F006FCC1
:1070E0003A0405D50C4B12499A6B204600F0FEFB82
:1070F000104B1B68DB0700D500BE2846FFF748FB96
:1071000002B0BDE8F0870C49204600F0EBFBC2E777
:10711000A83303004033030000ED00E0E51A03004C
:10712000FA1A03002F1B03008A1B0300D91B03005C
:10713000F91B0300F0ED00E0571B0300D42003000F
:10714000CE1B030010B5034653E8000F0A4643E880
:10715000002494F0000FF7D110BD10B5034653E89A
:10716000002F42EA010043E8000494F0000FF6D13A
:1071700010BD10B5034653E8000F00EA010243E8D2
:10718000002494F0000FF6D110BD10B5034653E86B
:10719000002F02EB010043E8000494F0000FF6D149
:1071A00010BD10B5034653E8002FA2EB010043E8E1
:1071B000000494F0000FF6D110BD0121FFF7CDBF00
:1071C0000021FFF7D6BF000037B5044620B91449A7
:1071D0004FF4927002F09EFE00250DF107008DF82D
:1071E0000750FFF7BBFE2268616813688B4210D915
:1071F000591E116013F8015C228AE36802FB053511
:107200002268A36811685B1A1179DBB2994238BF12
:1072100013719DF80700FFF7D1FE284603B030BD7B
:107220003C21030037B50C46054620B9104940F211
:10723000471002F06FFE24B90D494FF4A47002F01C
:1072400069FE00230DF107008DF80730FFF786FE79
:107250002A681368591C1160E968641A298AB4FB0A
:10726000F1F41C709DF80700FFF7A8FE03B030BDD5
:107270003C21030038B5074C051E04F1080318BF74
:107280001C4623682BB11A6822605B682846984721
:10729000F7E738BD44AA002020B9054B01225A70F7
:1072A000FFF7E8BF012802D1014A9070F8E7704764
:1072B0003CAA002020B9034B01225A70FFF7DABF25
:1072C000704700BF3CAA002038B50B4C237883B927
:1072D0000A486360A3602361E36000F07DFC05461B
:1072E00002F042FB08B900F08BFC01232370284612
:1072F00038BD8525FBE700BF3CAA0020997202003B
:1073000013B5164C237823B915494FF4857002F054
:1073100001FEE36823B9124940F20B1002F0FAFDB6
:1073200000230DF107008DF80730FFF717FEE36823
:10733000013BE360E36853B902F016FB18B108495A
:10734000792002F0E7FD00F079FC0023A3709DF89E
:107350000700FFF733FE02B010BD00BF3CAA0020BB
:1073600086210300012813B508D003281CD018B9C2
:10737000144B0122C3F8802002B010BD124C002330
:107380000DF107008DF80730FFF7E8FD23780BB902
:10739000FFF79AFFE3689DF807000133E3600123DC
:1073A000A370FFF70BFEE7E7074B1B7823B90749EC
:1073B00040F2452002F0AEFD00F022FCFFF7A0FFF6
:1073C000DAE700BF00E100E03CAA002086210300CC
:1073D0007FB503788DF804304368029383688DF895
:1073E0000C30C36804930369064A8DF81430064BC9
:1073F00001A853F8213052F82110984707B05DF8E2
:1074000004FB00BF50AA00205CAA0020F0B505468E
:10741000174615F804CB124A42F82C70114A42F86C
:107420002C30114B0C460FCB85B06E4686E80F0012
:107430002368009323798DF8053063798DF8063041
:10744000A3680293002FA389084AADF80C3008BF47
:107450003A4663463146284601F016F805B0F0BDBD
:107460005CAA002050AA0020D8210300D17302009A
:10747000037813F0040216D003F00303012B03D0AA
:10748000022B09D0012070470A6800880232C0F33D
:10749000831002440A60F5E70B684288023303EB6D
:1074A00092130B60EEE71046704700002DE9F04F95
:1074B00089B000230446861C0DF10F000F461546C7
:1074C0008DF80F30FFF74AFD494801683960D0E96F
:1074D0000132134401335B1A824600F21C4700F567
:1074E000836900F21448B3421CD30020002D7BD0E6
:1074F00004F00F039B0143F0050363F30F00DAF878
:107500000020DAF808301340033316444AF8230009
:107510009DF80F00CAF80060FFF750FD012009B088
:10752000BDE8F08F01213846FFF72FFE4846FFF7F0
:1075300044FE4046FFF741FEDAF80400DAF808B0EE
:10754000049000EA0B0003300AEB800004A9FFF767
:107550008FFF049B0246F8B90BEA03010AEB810195
:1075600003F1020CC8680590013303EA0B0B0AEB28
:107570008B0B00F003000128DBF80C10CDF810C0D5
:107580002AD002280BD01B4901924FF4BF7002F0A1
:10759000C1FC019A93460CE00BEA0300D3E7BDF867
:1075A0001630C3F3891303334FEA114B0CEB9303EB
:1075B00004934046FFF704FE10B1049BCAF8043060
:1075C00059463846FFF7E1FDDAE901231344DAF8BA
:1075D000002001339B1A86E7BDF81430C3F38313F0
:1075E0004FEA114B6344E3E7A40544F0060086E745
:1075F00038AB0020F5210300034BD3E90030C31A58
:1076000058425841704700BF38AB00202DE9F04385
:1076100087B0FFF7F1FF0646002840F0F9807D4D66
:10762000C5F81804BFF34F8F6B68AC680293234012
:10763000033305EB830002A9FFF71AFF029B18B181
:10764000D5F81824002A5FD004EA0302991C0133FC
:1076500005EB8202234005EB8303D268DB680493C9
:1076600002F00303022B0392029160D1BDF80E30A9
:107670006948C3F38917502FB84628BF4FF0500808
:1076800068F38F1308F10801ADF80E3000F0DCF953
:107690000646002800F0A78000F005FA0023082223
:1076A00003A9304600F012FA029924EA01020132DD
:1076B000B8EB820F4FEA820332D95FFA88F85BB3E6
:1076C0002140DCB2A8EB040803315FFA88F9A04638
:1076D000524C05EB810108234246304600F0F6F992
:1076E00034B108F108034A462146304600F0EEF96D
:1076F000029B033703EB97070297D5F81834002B4A
:1077000049D1D5F8104459E02A689A428FD86A6066
:10771000304607B0BDE8F08340491C469946DAE799
:107720000C40E11C0823424605EB8101DDE7012BFB
:1077300059D1BDF80C303848C3F38311062928BF4E
:10774000062161F3891302318900ADF80C3000F095
:107750007BF90646002846D000F0A5F90023082250
:1077600003A9304600F0B2F90027BDF80C20C2F39F
:107770008312BB00974203F10803BED202994A1C50
:1077800021400331029205EB81010422304600F0D2
:107790009DF90137E9E7304600F089F9FFF72CFF42
:1077A00080F00100C6B2B3E7E3685B7923B12368D8
:1077B00031461B6820469847E3681C68002CF3D1CB
:1077C000304600F074F90DF107008DF80740FFF71F
:1077D000C5FBD5F818340BB9029B6B609DF8070008
:1077E000FFF7ECFBDAE7D5F8104454B90C4B0D4821
:1077F0000D49C01AC008000440F0020000F072F801
:10780000CCE7236820469B689847E3681C68ECE750
:1078100000267DE738AB0020D833030044AB0020BE
:107820004033030098330300462203002DE9F74F4D
:10783000274D04460F46914601A901221846D5F866
:1078400008A09846FFF732FE78B3019E0023B01CD3
:10785000434503EB000132D11E480021FFF772FCC3
:1078600080F3100B1C4B1D4A4FEA14499B1AB9EBCD
:10787000D30F04D31A4940F2A31002F04BFB731C40
:1078800003EA0A03E40005EB830304F0380449EA41
:107890000B4006EA0A0644F00104D860033644EAC5
:1078A000881343EA872345F8263095F820341BB126
:1078B000FFF7ACFE0028FBD103B0BDE8F08F0AEA69
:1078C000010105EB810159F82320CA600133BFE7AC
:1078D00038AB002054AF0020D833030040330300FE
:1078E000F521030000231A46FFF7A0BF07B50123C7
:1078F000019201AAFFF79AFF03B05DF804FB07B5F8
:10790000CDE9002302236A46FFF790FF03B05DF83C
:1079100004FB1FB5CDE90123069B039301AA0323B2
:10792000FFF784FF05B05DF804FB1FB5CDE9002328
:10793000069B0293079B03936A460423FFF776FF97
:1079400005B05DF804FB000038B5094A0123D2F800
:10795000104482F820341D4604B938BDE3685D71D7
:10796000236820465B689847E3681C68F4E700BF1B
:1079700038AB00202DE9F74F99469DF83030009341
:1079800088469346064618B92349B62002F0C2FA43
:10799000F18872794A43043A4A4505D81E49019252
:1079A000C42002F0B7FA019ADBF80070B6F806A01E
:1079B00007EB0901914209F1040488BFA2EB090712
:1079C000B4FBFAF5CBF800700AFB154445B9AAEBF5
:1079D000040BBB4528BFBB462FB903B0BDE8F08FF1
:1079E0003668013DF2E7009B043408EB050034449F
:1079F0005A466BB12146A7EB0B0702F019FFBA45B7
:107A00005D443668D3464FF0000428BFBB46E3E729
:107A100001462046EFE700BF5B220300F8B5467938
:107A20000146721E0546002393422D6803D30024AD
:107A3000A64202D8F8BD0133F6E70F682846FFF7E3
:107A4000F1FB01343946F3E72DE9F843CD1C068AF2
:107A50000746FFF7B9FB043E35440446B5FBF6F58F
:107A6000F0B14FF48073EDB28380C680013D0760B2
:107A700081464FF00008A84512D23846FFF7A4FB14
:107A8000064648B163790133637108F10108C9F80A
:107A9000000007608146EEE72046FFF7BFFF34464F
:107AA0002046BDE8F88301210430FFF76EBB10B516
:107AB000012104460430FFF774FB10F0FF0F04D1DE
:107AC0002046BDE81040FFF7A9BF10BD1FB5144602
:107AD00003920022009203AAFFF74CFF039BA342EC
:107AE00003D00349F62002F015FA04B010BD00BF20
:107AF0005B220300064B10B500241C70054B1C6074
:107B0000BFF35F8F0449054800F00AF8204610BD16
:107B100064AF002068AF0020B02203005CAF0020FB
:107B200038B50D46044618B90849502002F0F2F95C
:107B30001DB90649512002F0EDF925602B686360FC
:107B40006A68934204BF0023636038BDBC2203000F
:107B500010B5044618B90B49632002F0DBF923681D
:107B60001BB90849642002F0D5F9636843B1226863
:107B700091680B4463605268934204BF00236360C2
:107B800010BD00BFBC22030010B50D49A1F59472D1
:107B9000914201D800200FE08C1AE30F03EBE403BD
:107BA0005B1002EBC30452F83330834205D802D293
:107BB00004F10802ECE7606810BD2146E8E700BF69
:107BC0001428030008B5FFF7DFFF024B002808BFA9
:107BD000184608BDD926030010B5044618B9064951
:107BE000A02002F097F9054A107918B90121146014
:107BF000918010BD8520FCE7142803006CAF0020A5
:107C000008B50B4B1B791BB90A49B92002F082F960
:107C1000094B1A68D2075FBFE02283F800230122D4
:107C20001A604FF080430122C3F8182508BD00BF39
:107C30006CAF00201428030000E100E008B5084BF9
:107C40001B791BB90749F32002F064F9064B0122A6
:107C50001A604FF08042D2F81834DB03FBD408BD21
:107C60006CAF0020142803000C00004007B5154B32
:107C70001A687AB100221A601B680093009B4FF0CB
:107C800080430122C3F808230F4B587910B95A7169
:107C90001B6898470D4B1A6882B100221A601B6856
:107CA0000193019B4FF080430222C3F80823064B47
:107CB0001B68012003B05DF804EB184703B05DF8C2
:107CC00004FB00BF000100406CAF00200401004035
:107CD00000F1804000F5C040002382B003600368DB
:107CE0000193019B02B07047054B4FF0FF3207280C
:107CF00043F8202084BFC01880F84820704700BF98
:107D000074AF002002494FF4F37002F003B900BFD2
:107D1000612803001F2838B504460D4601D9FFF736
:107D2000F1FFA00000F1A040D0F8003723F4403369
:107D3000C0F80037D0F8003743EA0543C0F80037F1
:107D400038BD000010B5174C94F8583043BB04F10F
:107D500030032021FF22013911F0FF0103F8012B2C
:107D6000F9D1C8B2FFF7C0FF01310C29F9D10422C3
:107D700000210D4802F0F6FD0C4BE02283F80623AB
:107D800040221A604FF4BE70FFF7A2FF084B4FF07D
:107D90000042C3F80423012384F85830002010BDAA
:107DA0000820FCE774AF0020C8AF002000E100E02D
:107DB00000600040034B93F85800003818BF0120C2
:107DC000704700BF74AF00201F2870B504460D46F1
:107DD00004D941494FF4987002F09CF83F4E96F850
:107DE0005830012B04D03C4940F2311002F092F897
:107DF00025B939494FF4997002F08CF8331993F989
:107E00003020013266D1AA78002A55D0334B0022A7
:107E100053F8041B01314AD1331983F83020002371
:107E200046F82230920002F1804202F5C0422B78DF
:107E3000D2F81005697820F498101B04090520F485
:107E4000F85001F4801103F44033C2F810050B43DD
:107E50002102D2F8100501F4F8510B430343C2F894
:107E600010356B78012B4FF0010529D11F2C01D95A
:107E7000FFF748FF4FF0A043A540C3F808551F2C5B
:107E800001D9FFF73FFF04F5E0724FF0A043032153
:107E900043F8221024FA01F3114A0120D15C04F0C6
:107EA000070400FA04F40C43D454002003E0013228
:107EB000082AADD1042070BDFE2283F83020D0E71F
:107EC0001F2C01D9FFF71EFF4FF0A043A540C3F8B8
:107ED0000C55D4E70820EEE79E28030074AF00207D
:107EE000C8AF00201F2838B5044604D912494FF402
:107EF000BE7002F00FF8114D2A1992F930200132AC
:107F000004D10D4940F27D1002F004F82B1993F8CA
:107F10003030072B04D808494FF4BF7001F0FAFF46
:107F20001F2C01D9FFF7EEFE01204FF0A04300FA0D
:107F300004F4C3F8084538BD9E28030074AF002040
:107F40001F2838B5044604D912494FF4C37001F014
:107F5000E1FF114D2A1992F93020013204D10D4967
:107F600040F2871001F0D6FF2B1993F83030072B21
:107F700004D808494FF4C47001F0CCFF1F2C01D97C
:107F8000FFF7C0FE01204FF0A04300FA04F4C3F84D
:107F90000C4538BD9E28030074AF00202DE9F04F3A
:107FA00087B000245F4D03944FF48072012102F1E9
:107FB000804303F5C04390B21B68012B06D1D5F86E
:107FC00004330B4202D0FFF783FE0C430432B2F5B8
:107FD000907F4FEA4101EAD1534B1B68012B0AD134
:107FE0004FF4BE70FFF774FE4FF0A04344F000441E
:107FF000D3F81035039314F0FF0F1AD04B4F002520
:108000000126344210D0AB0003F1804303F5C04396
:10801000D3F81005D3F8101557F8253023B1C1F364
:108020000141C0F3042098470135082D4FEA460668
:10803000E7D1002C6EDA00214FF0FF33CDE90413B5
:108040003A4FDFF8EC800026354618F9013B5A1C00
:1080500055D0C3F3C20201215FFA83FB03F03F094D
:1080600003F0070301FA03F406AB991811F8043C76
:10807000234244D007EB09034FEA9B1B93F93030AE
:1080800057F823A0BAF1000F0BD1BBF1030F36D183
:108090000DF1100E1EF802C04CEA040C0EF802C0DE
:1080A00002E0BBF1030FF3D0B9F11F0F03D9019127
:1080B000FFF728FE019911F80C1C09F5E0724FF04A
:1080C000A043214253F82220C2F3014206D0022AE3
:1080D00015D1BBF1030F0CD1594605E0032A0ED18F
:1080E000BBF1030F05D102214846FFF713FE01350E
:1080F000EDB2BAF1000F02D059464846D0470136DA
:10810000042EA2D135B14FF0A043039AD3F8103515
:10811000934202D107B0BDE8F08F0393049B05930F
:108120008FE700BF006000407C61004074AF00201A
:10813000C4AF002010B5054C22681AB9044951207B
:1081400001F0E8FE2368BDE810401847D0AF0020DA
:10815000F128030037B50D4630B90F49772001F0FB
:10816000D9FE002003B030BD0C4B9842F9D100235A
:108170000DF107008DF80730FEF7F0FE084B1C7973
:1081800014B901221D601A719DF80700FEF716FF51
:10819000002CE6D01120E5E7F12803000020004084
:1081A000D0AF00200023435082B043580193019B7D
:1081B00002B0704770B5D0F8103105460C4653B187
:1081C0004FF48871FFF7EEFF63795A0703D52368F0
:1081D0000BB101209847D5F814315BB14FF48A7187
:1081E0002846FFF7DFFF63791B0703D523680BB130
:1081F00002209847D5F81C315BB128464FF48E71A8
:10820000FFF7D0FF607910F0100002D1236803B1AE
:108210009847D5F8043163B14FF482712846FFF7CF
:10822000C1FF0123237123681BB1BDE87040032007
:10823000184770BD01490248FFF7BCBFD8AF002006
:1082400000C0014001490248FFF7B4BFE0AF002081
:108250000010024001490248FFF7ACBFE8AF002020
:108260000020024000F1804000F5E040002382B091
:10827000036003680193019B02B07047F0B5504B57
:10828000504C1B6885B0002B3DD04FF4827094F8A1
:108290002E20FFF7E7FF2AB394F82F3013BB4A4B89
:1082A0001B68002B33D04FF48070FFF7DBFF638B2C
:1082B00094F82D108B424FD922895B1A9BB292B24F
:1082C0006383D31A626802EB4303404AC2F82C3638
:1082D000C2F830164FF48270FFF7C4FF3C4B012206
:1082E0001A6014E0636802932389ADF80C30E368E8
:1082F00000218DF8041023BB2374236801A898473C
:10830000002384F82F3094F82E30002BC7D1314B46
:108310001B685BB14FF48870FFF7A4FF0023237440
:1083200002238DF8043001A8236898472A4B1B6864
:10833000EBB14FF48A70FFF795FF0023237405B06B
:10834000F0BD208B608363602081E160002AD4D17E
:108350001E4B01221A60D0E7BCD1E368012284F8E9
:108360002F2013B100226283AFE76383B2E766690F
:108370004FF000470125002EE1D0B6FA86F227FA29
:1083800002F34632920026EA030602F1804303F527
:10839000E0431B68002BEED01046FFF763FFA2F509
:1083A0008C72D30882F00402C2F380028DF8083088
:1083B0008DF8045023688DF8092001A89847DAE762
:1083C00004710040F0AF00200071004000700040D8
:1083D00004700040107100401471004002494FF4D5
:1083E000F37001F097BD00BF612803001F2810B58E
:1083F000044601D9FFF7F2FF01204FF0A04300FA35
:1084000004F4C3F80C4510BD1F2810B5044601D96B
:10841000FFF7E4FF01204FF0A04300FA04F4C3F893
:10842000084510BD13B54FF04023D3F818310BB3F6
:10843000114B124C00221A601B680193019B2368A8
:1084400023B90F494FF4277001F064FDE07FFF2846
:1084500003D0A37F5BB1FFF7C9FF002363772372CB
:10846000D4E90031074802B0BDE810401847FFF7D3
:10847000CBFFF2E702B010BD1841004020B0002051
:108480004829030028B000202DE9F74F8146CDE9A7
:1084900000230C4619B97D49AD2001F03BFD99F848
:1084A00004607B4F242303FB06FB07EB0B0A9AF8BF
:1084B0001C10002940F0E380D9F800507549284687
:1084C000FFF748FE8046002840F0DC80009B47F81C
:1084D0000B30019BCAF80430237B2078012B00F27B
:1084E000BC80FFF783FF94F800A0BAF11F0F01D9F9
:1084F000FFF774FF0AF5E07A4FF0A043012243F83A
:108500002A2094F801A0BAF1FF0F00F0A98050468C
:10851000FFF76CFFBAF11F0FD34601D9FFF75EFFDB
:108520000AF5E07A4FF0A043032243F82A20A3780B
:10853000FF2B00F098801F2B9A4603D90093FFF77A
:108540004DFF009B03F5E0734FF0A042042142F879
:108550002310242303FB0673A27883F82020E078FD
:10856000D877FF2817D02379002B7FD0FFF73EFF65
:10857000E3781F2B03D90093FFF730FF009B03F52F
:10858000E0734FF0A042032142F82310242303FBA1
:10859000067322799A772378C5F80835C5F80CB5A3
:1085A000C5F810A5A368C5F82435637B227B003B82
:1085B00018BF0123022A5CD0032A5DD0012A01D111
:1085C00043F00203C5F85435A379C5F8C035242318
:1085D0007343FB5813B14022C5F804230722C5F8A2
:1085E00000257BB36479D9F80050A31E012B4FEA14
:1085F000153A45F3073506D9631F022B03D92649DF
:108600006B2001F087FC002DACBF05F16043234BCC
:108610004FEA4414B8BF0AF00F0AE4B2AABF03F548
:10862000614303F80A4083F80043D9F80030012180
:1086300043F30732C3F3043301FA03F35209184931
:1086400041F82230242303FB0676002373770123AD
:108650003377404603B0BDE8F08FFFF7D5FE42E721
:108660004FF0FF3B63E74FF0FF3A72E7FFF7CCFEB6
:108670007EE743F00403A5E743F00603A2E74FF0CB
:108680000808E6E74FF01108E3E700BF48290300B8
:1086900020B00020258402008E29030014ED00E0A4
:1086A00000E100E02DE9F341584F0679242303FB54
:1086B000067380461B7F0D46144623B9544940F289
:1086C000322001F027FC2B6833B96B6823B1504985
:1086D00040F2332001F01EFCAB6833B9EB6823B1E4
:1086E0004B494FF40D7001F015FC98F804302BB98C
:1086F000EB68FF2B02D86B68FF2B04D9444940F28A
:10870000352001F007FC24237343FA18517F002918
:1087100079D1FB5823B114F0140F04BF0123537710
:1087200095E80F004FF0240C0CFB067C0CF10C0EAE
:108730008EE80F009CF81F00FF2804D09CF81E3024
:10874000C3B1FFF761FE2A6822B102F06043B3F1C2
:10875000005F06D1AB6883B103F06043B3F1005F03
:108760000BD0242303FB067600237377102002B07E
:10877000BDE8F081FFF73AFEE5E7D8F80030696818
:10878000C3F84425C3F84815D5E90212C3F83415D7
:10879000C3F838250022C3F81821D3F81821019214
:1087A000019A14F0010218BF0122C3F8502514F0F9
:1087B000020218BF0122C3F8402522075CBF012234
:1087C0001A6124227243BA5892B9D3F81821002AA8
:1087D000FBD0242303FB0676F07FFF2803D0B47F71
:1087E0001CB1FFF703FE0020C1E7FFF70DFEFAE71B
:1087F00014F004004FF0400202D0C3F80823F2E75F
:10880000C3F80423B3E71120B1E700BF20B0002074
:10881000482903002DE9F743002406460F4600F5DA
:10882000A0754FF48038A146A30003F5A07398B259
:108830002B686BB1D6F8043308FA04F21A4207D059
:10884000C5F800902B680193019BD7E90031984748
:108850000134042C05F10405E6D103B0BDE8F08332
:1088600001490248FFF7D6BF44B000200080004015
:1088700001490248FFF7CEBF50B0002000900040F1
:108880000023435082B043580193019B02B07047CC
:10889000F0B54F4C236887B023B94E4940F24520CC
:1088A00001F038FB4C48D0F8243105469BB14FF419
:1088B0009271FFF7E5FFD0F8043163B9A368C0F8FF
:1088C00008330223A360A368C0F8043301230362C2
:1088D000436107B0F0BDD5F80431002B49D03F4FBC
:1088E0003D484FF48271FFF7CBFF0FCF01AE0FC6AB
:1088F0003B68336094F82E307BB1237B012B0CBF97
:10890000D5F83C25D5F84C250292022B324B0CBFF2
:10891000D3F83C35D3F84C3503932F484FF4B0715E
:10892000FFF7AEFF2C484FF4AE71FFF7A9FF94F8A4
:10893000303013B194F82E303BB1274B0022C3F8EE
:108940000022A260264AC3F80823234AD2F8C4347E
:10895000C2F8C4349A0736D501238DF8003094F854
:1089600030300BB984F82F30D4E90031684698478D
:10897000AFE719484FF4A471FFF782FF237B83B957
:10898000164F0FCF01AE0FC63B68336094F83030FE
:10899000002BDAD1C5F80032A360114BC5F80833BB
:1089A000D3E74FF40073C5F8003240F20223A3600E
:1089B00003F1CE73C5F80833A368C5F80433012367
:1089C000AB602B6285E713F0040318BF0223C4E7F2
:1089D0005CB00020D72903000030004068B00020C0
:1089E00002029C016DDF704779DF70477DDF7047C1
:1089F00064DF70472DE9F04F85B000250E9CBDF86F
:108A00003CB0B4F800A00191074690461E46A94626
:108A10003A884A450DDC45B12388013BA3EB0A03A4
:108A20009BB2FF2B3AD806F80A30002005B0BDE80B
:108A3000F08F7A6852F82900039000220DF10B01A3
:108A400003A8FFF7D5FF0028F0D19DF80B20424581
:108A500021D12288002D14BF0020022002EB080142
:108A6000014459451ADC3DB9013292B2019B228082
:108A7000B35422880132228022880DF10B01324446
:108A800003A8FFF7B5FF0028D0D121889DF80B205F
:108A90000A442280012509F10109B9E70C20C5E744
:108AA0002DE9F341089FBDF824801546CDE90078F3
:108AB000022204461E46FFF79DFF50B9334610229E
:108AC00029462046CDE9087802B0BDE8F041FFF71D
:108AD00091BF02B0BDE8F0812DE9F04F0023178867
:108AE000138090F82D3085B006460D46144653B3DA
:108AF000082F01D80C2027E102A8FFF773FF0028F8
:108B000040F0228123880822EA54238801339BB253
:108B10001B222380EA542088013080B22080062264
:108B20000DF10901284401F083FE23889DF80820F7
:108B300006339BB212F0FE0218BF01222380EA54D2
:108B4000238801332380B378FBB123880433BB42ED
:108B5000D0D802A8FFF748FF002840F0F58023880E
:108B60000322EA54238801339BB219222380EA545A
:108B70002388BDF8082001339BB2E9182380EA540A
:108B8000120A4A70238802332380F2789AB123882C
:108B9000D91CB942AED80221E954238801339BB2D3
:108BA00001212380E95423880B449BB22380EA549B
:108BB00023880B4423807268AAB12388D91CB94248
:108BC00098D8022192F90020E954238801339BB2FE
:108BD0000A212380E954238801339BB22380EA547D
:108BE0002388013323803389002B40F0A180338A0E
:108BF0005BB1CDE900472B460722032106F11000A7
:108C0000FFF74EFF002840F09F80338B5BB1CDE92A
:108C100000472B461522142106F11800FFF740FFEC
:108C2000002840F09180326A002A40F09080D6F807
:108C30002480B8F1000F30D0B8F804302188981C97
:108C40008A1C0244BA423FF655AFFE283FF652AFA7
:108C500003336B54238801339BB2FF222380EA54F1
:108C6000238801339BB22380B8F80020EA54E91826
:108C7000120A4A702088023080B22080B8F804209E
:108C80005AB1D8F8081000296BD0284401F0D0FD63
:108C90002388B8F804201344238096F82C30002B46
:108CA00040F09A80307800284ED03388012B58D07D
:108CB000228802F1020CBC453FF61CAF012805D109
:108CC0007378023313449F42FFF414AF023FBF1A7C
:108CD000BFB202A905EB0C00ADF80870FFF786FEE5
:108CE00090BB3178BDF80830022900F0BA80727864
:108CF0009A4202D3BB4240F2B280012940F0B380D5
:108D0000974293B2C0F0AF80ADF808300821BDF8AB
:108D10000830FE2B3FF6EEAE22880133AB5422889A
:108D2000013292B22280A9542288134423800BE09E
:108D3000CDE900472B460622022106F10800FFF785
:108D4000AFFE00283FF453AF05B0BDE8F08FB4F894
:108D500000C00CF10603BB423FF6CCAE11880529DA
:108D600001D80720F0E76FF4486E01EB0E039BB2C9
:108D70004FF27D3E7345F4D95388052BF1D96FF43A
:108D80004860181880B27045EBD94FF6FF708142E9
:108D900003D0834201D09942E3D8052305F80C3073
:108DA000238801339BB212212380E95423880133A5
:108DB0009BB223801188E954E818090A417023887E
:108DC00002339BB223805288EA54E918120A4A708F
:108DD0002388023323802AE7B36A002BC1D04FF0E7
:108DE00000094FF00C0A4FF0160B96F82C305FFA82
:108DF00089F293427FF656AFB16A0AFB02F201EBA9
:108E00000208B8F80430981CFE283FF673AE20889C
:108E100003332B54238801339BB2238005F803B01E
:108E2000238801339BB223808A5AEA54E918120A34
:108E30004A702088023080B22080B8F804205AB1ED
:108E4000D8F8081000298CD0284401F0F1FC2388C0
:108E5000B8F804201344238009F10109C5E709216A
:108E600055E7BB42FBD9ADF808704FE770B5C0B10C
:108E70004AB116880024B44203D305196D789D4287
:108E800008D0A14201D800200BE0055D01352C443B
:108E9000A4B2F0E7A142F6D9A31C1380005D01380B
:108EA00080B270BD13B513460022ADF806200DF157
:108EB00006020446FFF7DAFF10B1BDF80630E018ED
:108EC00002B010BD72DF704773DF704738B5012202
:108ED00004460D46B0F83812D0F83402FFF7E2FF2E
:108EE00000B1057004F13C0204F50D7104F1540069
:108EF000BDE83840FFF7E6BF80F830107047F8B59E
:108F000004460F46002975D0002873D091F87A30B6
:108F10001BB191F89830002B6ED1D7F8A030042BFC
:108F20006AD0D7F89C30042B66D04FF0000C84F840
:108F300002C007F178060FCE251D0FC50FCE0FC555
:108F400096E8070085E8070084F830C0D7F8A43019
:108F50006363D7F8A830A3634FF6FF7504F50D736C
:108F6000C4F84432A4F848520722614604F24A2069
:108F700001F0F8FC23780BB984F8545094F82430AD
:108F8000002B14BFEE231F2304F15501C4F8341243
:108F9000A4F8383204F50E723846FFF79DFD40BB49
:108FA00094F82430002B14BFEE231F2304F2431146
:108FB000C4F83C12A4F8403204F5107207F13C00EA
:108FC000FFF78AFDA8B9A369A4F848304FF480736D
:108FD0000125A4F8503063692064014684F83C50B0
:108FE000636404F13C0204F15400FFF76BFF00B925
:108FF0002570F8BD0E20FCE70720FAE7F8B50778E2
:1090000004460D46002F00F0048100F24A268170CC
:1090100007220021304601F0A5FCE38813B1A378B4
:10902000012B04D0E3794BB1A378022B06D1636BFB
:10903000A3B1012284F8512208209847334604F551
:10904000147113F8012F12B99942FAD117466B1E09
:10905000032B52D8DFE803F0050B0F1284F85132CE
:10906000ECE7A3791BB194F8243003B95FB9E37935
:109070000BB1002F43D1237A002B42D1637A002B0E
:109080000CBF00250425636BA570002B3BD0033D6E
:10909000012D38D86279002A35D094F8522292BB3B
:1090A00084F85422012284F853220720984704F1BF
:1090B0003C0518220021284601F054FCE36A94F88C
:1090C0002420581E0121022828BF0B4684F83C109A
:1090D00084F8513032B1884296BFA36A84F85210A6
:1090E00084F85230A178002384F8503004291BD82A
:1090F000DFE801F0770D223559000025C3E702258E
:10910000C1E70325BFE7002384F85332CFE7C4E962
:109110001063C4F844320223012284F83C308023D7
:1091200084F83120A4F84830A378002B5CD1636B1D
:10913000002B6AD1002067E00223002A84F8313036
:1091400014BF0723032384F83C302369A4F8483074
:109150000023C4F84432E36826646364E4E7636987
:109160006364A369A4F8483012B1062384F83C3044
:109170006379B3B194F852329BB994F8543283B105
:10918000022384F8503004212046FFF79FFE002878
:10919000CAD1052384F8313004F50D73C4F8443284
:1091A000C2E70323F6E7E3696364236AA4F848305F
:1091B00012B1062384F83C30637983B194F85232BB
:1091C0006BB994F8543253B1022384F8503004211F
:1091D0002046FFF77BFE0028A6D10623DAE704230A
:1091E000D8E784F831309FE7D4F844122A4604F1D6
:1091F0005400FFF767FE38B994F8301094F8540023
:10920000FFF762FE002892D0F8BD94F8310098472D
:1092100090E70820F8E710B50388112B0C460AD018
:10922000262B1FD0102B05D1C37B012B02D18388A5
:10923000A1F8483210BD002381F852328288B1F87B
:1092400048329A42F6D10B79002BF3D10121204606
:10925000FFF7D4FE0028EDD0A36B002BEAD0BDE8C9
:1092600010401847037A013B012BE3D88978052386
:109270000131B1FBF3F303EB8303C91AC9B2E6E78B
:10928000704775DF704776DF70477ADF70477BDFA6
:1092900070470000034B1A8882420CBF184600201A
:1092A000704700BFACB00020024B9B6903B1184768
:1092B000704700BF90B0002073B585B22846FFF715
:1092C000E9FF044670B1164E027A337B9A420BD204
:1092D00000F10A012846FFF7D4FFE8B1112801D0B8
:1092E000FFF7E2FF02B070BD00230372337C43B18D
:1092F0003B212846FFF7C7FF30F0080301D0FFF7F6
:10930000D3FF7369002BEDD000228DF80420ADF857
:10931000065001A89847E5E7237A01332372E1E775
:1093200090B0002037B50B46497A0F4A71B9D2E99F
:1093300001141D7A0246002D18BF21465868FDF71A
:10934000A7FD08B1FFF7B0FF03B030BD00211972CF
:109350005369002BF8D00122ADF806008DF80420E7
:1093600001A89847F0E700BF90B000204B88028822
:109370009A4213D842889A4210D380888A8840F251
:10938000F313984294BF031AC31A934206D800F20B
:10939000F310904234BF0020012070470020704736
:1093A00070B50388122B014659D004D8102B1ED05B
:1093B000112B44D070BD502BFCD12F4BC288DB89C0
:1093C0009A42F7D1038A022BF4D186883046FFF700
:1093D00061FF05460028EDD001F1120000F08AF887
:1093E00038BB6868FDF79CFD0028E3D009E0C37B2B
:1093F000012BDFD14FF6FF70FFF74CFF054620B978
:109400000420BDE87040FFF74FBF8E881B4A0680DE
:10941000002303721368C0F80A305368C0F80E3096
:1094200010310A30FFF7A2FF134B6872DB89002B63
:10943000C0D129463046BDE87040FFF773BF808831
:10944000FFF728FF04460028B4D04068FDF768FD08
:1094500008B1FFF729FF4FF6FF732380AAE786883C
:109460003046FFF717FF05460028A3D008310A3021
:10947000FFF77CFF6872DCE790B00020C0B00020EE
:10948000F8B5064648B305460FCD154F3C460FC408
:1094900095E8070084E807003068124C3C60B0B1E2
:1094A000FFF7F3FEC0B93268136823605368636046
:1094B0000D480E4A4FF6FF7303800D4B40F8043FF2
:1094C0000021FDF7D3FC002818BF032004E020464C
:1094D000FFF7DDFE0028EBD0F8BD0E20FCE700BF53
:1094E00090B00020C0B00020ACB00020B9920200C3
:1094F000C8B00020007800F00100704790DF70478E
:10950000A5DF7047B5DF70477FB50023ADF80810C1
:10951000ADF80A106A4602A9064603930093ADF817
:109520000430FFF7EBFF054600B3124B124CE41A70
:10953000E408FEF747FB240444F0010403460F4906
:1095400032462046FEF7DBF9BDF80020BDF80230B8
:1095500052EA030103D00A492046FEF7D0F9BDF8CC
:1095600004201AB107492046FEF7C0F9284604B086
:1095700070BD00BF40330300B03303002D2A030049
:10958000772A0300B62A030080B14FF0F713036077
:10959000FB230371F723C3801723038141F6FB32BA
:1095A0000023016143818281184670470E20704775
:1095B00013B5034680880C46B8B91A88242A00F0EF
:1095C000968014D8112A71D0232A00F09E80102A88
:1095D0003BD0A37A4BB1E1880020FFF791FF002830
:1095E00040F099804FF48073638102B010BD3A2A35
:1095F00065D0552AEDD1DB88C988A072172B38BFFA
:1096000017238B4228BF0B462381FFF77BFF60B1F6
:10961000FEF7D8FA484B4949024649481B1ADB086D
:109620001B0443F00100FEF761F9E37A002BD0D16F
:109630002369002BCDD040F6772200922289ADF825
:109640000420694620469847C3E70A790A73DB7B02
:10965000012B13D0022B14D0E18823898B4205D231
:109660000020FFF74DFF70B90123E372217B637B7C
:109670008B42AED20020FFF747FFAAE70B88E380BA
:10968000EAE74B88FBE7112802D10123A372EDE73B
:10969000FEF798FA284B2B49024629481B1ADB088B
:1096A0001B0443F00100FEF721F9DFE7F723CB802D
:1096B00017230B8141F6FB3348818B8189E75B8956
:1096C000CA88934228BF1346172B0A6938BF17234D
:1096D0000B814AB1C97A39B140F677210091ADF8D2
:1096E00004306946204690470023638171E71A7A67
:1096F0000B694A73002B3FF46CAF4DF67A218DF85D
:10970000050000918DF804209BE7197A237B99428C
:1097100028BF1946AFE711283FF467AFFEF752FAAA
:10972000054B0849024606481B1ADB081B0443F098
:109730000100FEF7DBF858E7B03303003D2B0300D0
:10974000403303000C2B0300B0DF704766DF704727
:1097500010B5002104464088FFF7F8FF034608B91A
:10976000237210BD112801D10123F9E76368BDE818
:109770001040184760B159B10378DE2B0AD00B684E
:109780004360DE2303704FF6FF7343800020704771
:109790000E2070470820704728B10378DE2B04D1D3
:1097A0004180002070470E20704708207047F0B5B8
:1097B000054685B00C46F1B1E8B10B78DE2B1AD125
:1097C00082884B889A4204D10B7A13B10846FFF77E
:1097D000BFFF2B88112B32D0512B0ED0012B0AD179
:1097E0002B7A012B07D1A9886288914203D1237279
:1097F0002046FFF7ADFF05B0F0BDAE886388B342E9
:10980000F9D1AF79022FF6D1AD7B2B1F022BF2D805
:1098100000211022684601F0A5F8052D14BF4FF471
:10982000C0730023694630468DF80070ADF80430EF
:10983000FFF78AFF0028DED063689847DBE763887C
:10984000AA889A4204BF4FF6FF736380D3E710DF04
:109850007047000013B5044609496846FEF760F9F1
:10986000019808B902B010BDD0E900212046904708
:1098700018B16846FEF76CF9F2E71120F2E700BF75
:10988000D02B030013B5044607496846FEF748F994
:10989000019B0BB902B010BD2046D3E900219047CF
:1098A0006846FEF755F9F3E7E82B03000C4991F8F9
:1098B00016335A09EC231341DB0706D5094B9A6886
:1098C0004AB94FF480030B607047074AA12142F266
:1098D0000200FDF78AB81A6842F480021A607047E5
:1098E00000E100E03CB40020792B0300F7B5194FEC
:1098F0003C7864BB184E012520463570FFF7AAFF5F
:10990000112821D02046FFF7BDFF144B8DF80340EE
:10991000186801900DF10300FDF720FB104901A824
:10992000FFF795FF0446B0FA80F0400938709DF8C3
:109930000300FDF743FB3CB90A4B34701C70FFF782
:10994000B5FF2846FFF79EFF204603B0F0BD082470
:10995000FAE700BFE9B00020E8B00020C92B0300FF
:1099600065660200EAB00020014B1878704700BF1E
:10997000E9B0002007B508496846FEF7D1F8019B19
:1099800013B903B05DF804FBD3E9002090476846A3
:10999000FEF7DEF8F3E700BFDC2B0300FFF7EABFBA
:1099A00060DF704769DF704761DF704730B5134D86
:1099B000ADF5017D4FF4FA740DF1020103A8ADF885
:1099C0000240FFF7F1FF70B9294601A8FEF7A8F899
:1099D000029B002BF0D003A8D3E90021904701A8F7
:1099E000FEF7B6F8F4E7052804D0054A40F239112D
:1099F000FCF7FBFF0DF5017D30BD00BFBC2E030061
:109A0000F42B0300024B1B780BB1FFF7CFBF70475D
:109A1000EBB0002030B5054685B00C46002900F0BB
:109A2000B6805C4B0B600C22002101A800F09AFF6D
:109A300001238DF8063022688DF80450062301A911
:109A40002020ADF80830FFF7ADFF60B1FEF7BAF89F
:109A5000514B5249024652481B1ADB081B0443F083
:109A60000100FDF743FF0C22002101A800F07AFF5E
:109A700001238DF805302268002301A94020ADF8AC
:109A80000630FFF78FFF60B1FEF79CF8424B454967
:109A9000024643481B1ADB081B0443F00100FDF794
:109AA00025FF0C22002101A800F05CFFF7232268AB
:109AB0008DF8045001A92320ADF80630FFF772FF9E
:109AC00060B1FEF77FF8344B3749024634481B1A21
:109AD000DB081B0443F00100FDF708FF0C22002106
:109AE00001A800F03FFF0A2322688DF8043001A985
:109AF0000120FFF757FF60B1FEF764F8264B2B49B2
:109B0000024627481B1ADB081B0443F00100FDF73F
:109B1000EDFE0C22002101A800F024FF4FF4B063F9
:109B20002268019301A9A120FFF73CFF60B1FEF775
:109B300049F8194B1E49024619481B1ADB081B0439
:109B400043F00100FDF7D2FE0C22002101A800F035
:109B500009FF9DF8043022686FF3000301A9A020DB
:109B60008DF80430FFF71EFF034668B1FEF72AF8B0
:109B7000094B104902460A481B1ADB081B0443F034
:109B80000100FDF7B3FE0023184605B030BD0E23DB
:109B9000FAE700BFA8980020C8330300402C030058
:109BA00040330300862C0300D22C0300192D030040
:109BB000652D0300B62D030073B505460668FFF753
:109BC000EFFE2B68B34204461DD91A481A4B1B49B5
:109BD0001B1ADB081B0443F002000190FDF782FE14
:109BE0002B68174901983246FDF789FE4FF08053E4
:109BF0002A68D3F80C31134901989B0203F10053F2
:109C00009A1AFDF773FE2CB90F4B01221A702046E9
:109C100002B070BD2046FDF7D5FF074B0B49024649
:109C200004481B1ADB081B0443F00100FDF75EFE2D
:109C3000EDE700BF40330300C8330300092E0300E3
:109C4000382E0300692E0300EBB00020932E030092
:109C50006CDF70476DDF704772DF704774DF7047ED
:109C600076DF704778DF70477ADF70477CDF7047B8
:109C70007FDF704786DF70478ADF70478FDF70476E
:109C8000A8DF7047AADF7047B1DF704762DF704717
:109C900033DF704741DF70477047000037B50388F6
:109CA000212B044632D80F2B06D87D4B13B120460A
:109CB000AFF3008003B030BD103B112BF5D801A2EB
:109CC00052F823F0419D0200859D0200AB9C0200EA
:109CD000BF9D0200FB9D0200AB9C0200AB9C0200FA
:109CE000AB9C0200AB9C0200AB9C0200AB9C020050
:109CF000179E0200AB9C0200679E0200AB9C020014
:109D0000AB9C0200AB9C0200859E02003B2B00F046
:109D10008F80503B9AB2062AC7D8062BC5D801A21D
:109D200052F823F0A19D0200AF9D0200DF9D0200CA
:109D3000AB9C0200AB9C0200AB9C0200479E020061
:109D4000584D818858482980FFF726FD20B1574A91
:109D50004FF49D71FCF749FE002328881A461946E6
:109D6000FFF792FF20B1514A4FF4A171FCF73DFE7D
:109D70004F4800F057FE4F4B002B96D02046AFF3D4
:109D8000008092E7474B4C484FF6FF721A8000F074
:109D900049FE4A4B002B88D02046AFF3008084E771
:109DA000474B002B81D02046FCF7A6FA7DE7454BB8
:109DB000002B3FF47AAF2046AFF3008075E73948B7
:109DC000002300881A468521FFF752FF00283FF440
:109DD0006CAF364A40F28111FCF707FE65E7314867
:109DE000002300881A461946FFF74EFF00283FF46B
:109DF0005CAF2E4A40F28711EEE72A480023008824
:109E00001A461946FFF736FF00283FF44EAF274A9F
:109E100040F29111E0E7037A012B7FF446AFFFF7A0
:109E200037FF00283FF441AF204A4FF4CC71D3E70D
:109E300080881321FFF714FF00283FF436AF1B4A38
:109E40004FF4D071C8E7A379002B7FF42EAF154BE8
:109E500013211888FFF704FF00283FF426AF134AA8
:109E600040F2A711B8E7184B0BB1AFF300801749C8
:109E70000020FFF701FF00283FF417AF0B4A40F224
:109E8000C711A9E700238088ADF8043001A9FFF7C6
:109E9000F5FE00283FF409AF044A40F2D1119BE7D8
:109EA0000000000048B400205CB30020C82E03006E
:109EB000F12E030000000000012F0300000000004D
:109EC000F96202000000000000000000FC98002081
:109ED00008B5024AB021FCF788FD08BDC82E030072
:109EE00008B503784BB9054B3B211888FFF7B8FE3E
:109EF00018B1034ABA21FCF778FD08BD48B4002028
:109F0000C82E030008B5024AAC21FCF76EFD08BD5F
:109F1000C82E030013B504460548019100F082FDE8
:109F2000019A04482146FCF760FD02B010BD00BF55
:109F3000132F0300EFBEADDE1FB5184C00230293B4
:109F4000ADF80030CDF80B3023681B788DF8023067
:109F5000E5238DF8033006224CF2980369460DF193
:109F60000900ADF8043000F063FC23685B884FF60D
:109F7000FF72934207D0062269460DF10900ADF841
:109F8000003000F055FC02A8FFF762FE20B1044A41
:109F900040F22B21FCF729FD04B010BDECB00020ED
:109FA000C82E030007B5FFF7A1FC20B10F4A40F20D
:109FB0003321FCF71AFD002301A901200193FFF7CB
:109FC00029FD20B1094A40F23921FCF70EFD01A814
:109FD000FFF7F2FD20B1054A40F26E21FCF705FDC6
:109FE000FFF7AAFF03B05DF804FB00BFC82E030013
:109FF00010B51D4C86B011238DF80C3023685968BC
:10A000000191084600F03CFE019982B203A8FFF7D7
:10A010002DFE20B1154A4FF42071FCF7E6FC4FF4F9
:10A020007070FFF71FFE20B1104A4FF42171FCF74A
:10A03000DCFC0822002104A800F094FC23685A8963
:10A040009B89ADF8123004A84FF0C873ADF810200A
:10A050000593FFF709FE20B1044A40F28F21FCF777
:10A06000C4FC06B010BD00BFECB00020C82E030039
:10A0700000B5ADB0AC22002101A800F073FC0223B2
:10A080008DF8043040F20163104AADF80630012328
:10A09000ADF8143006928DF880304FF4F07244F22F
:10A0A0005063CDE923230A480A4B2A9301A9FEF7FE
:10A0B00026FF20B1084A40F2B221FCF796FC044882
:10A0C0000121FEF719FF2DB05DF804FBF898002080
:10A0D000F0B00020999C0200C82E030000B589B0A2
:10A0E0001C22002101A800F03DFC00234FF4203287
:10A0F000CDE90132ADF812304FF470228DF81430F2
:10A10000094B039206930322084B8DF8102001A8F7
:10A110000793FFF7B5F920B1054A4FF43271FCF708
:10A1200064FC09B05DF804FBE19E0200D19E0200D0
:10A13000C82E030007B5074B0748019301A9FFF795
:10A1400019FB20B1054A40F2D321FCF74EFC03B0C5
:10A150005DF804FB059F02005CB30020C82E0300DD
:10A1600008B5FCF73FFE20B1024A40F22531FCF76A
:10A170003CFC08BDC82E030008B506480321FEF7C5
:10A180003DFF30F0080304D0034A40F23231FCF7BF
:10A190002CFC08BDF0B00020C82E030008B5074B0A
:10A1A00093F85400FFF75AFD30F0080304D0044A36
:10A1B0004FF44F71FCF719FC08BD00BFF0B0002050
:10A1C000C82E030008B5FFF765FD20B1024A40F232
:10A1D0005131FCF70AFC08BDC82E0300234B37B5EC
:10A1E0001860FDF787FC20B1214A40F25E31FCF790
:10A1F000FCFBFFF7B5FFFFF7D5FE1E4800F012FC91
:10A20000FFF7F6FE1C4800F00DFC1C480021FFF78C
:10A21000BBF920B1164A40F29621FCF7E6FB18483C
:10A22000184D00F0FFFBFFF723FF174800F0FAFB83
:10A23000FFF780FF154800F0F5FB6846FFF70AFDC1
:10A24000134800F0EFFB06241DF80410284600F028
:10A25000E9FB013CF8D10F4800F0E4FBFFF73EFFBB
:10A260000D484FF6FF73038003B030BDECB0002003
:10A27000C82E0300382F0300492F030048B30020E5
:10A28000542F0300902F0300602F0300732F03004F
:10A29000832F0300AF18030048B4002010B5038AD1
:10A2A000044623B9427B037B43EA0223038204F181
:10A2B00012012046FFF7EAFC20B1094A40F295312D
:10A2C000FCF793FB04F1140204F110010120FFF7E5
:10A2D000D7FC20B1024A40F29A31FCF786FB10BD50
:10A2E000C82E03002DE9F04790B0DDE91A781C462E
:10A2F000BB7C8DF80E300646B8F80030BDF8609093
:10A30000ADF80C300D4638460DF10E019246FFF7C0
:10A31000BDFC20B1384A40F2A931FCF766FB1C2293
:10A32000002109A800F01EFBEB00720002F00202FF
:10A3300003F0080313434FEA0A1A9DF824200AF099
:10A34000100A43EA0A0322F01A020DF1040A00215E
:10A35000134350460322CDE90C11CDE90E118DF8BF
:10A3600024300A9100F0FEFA41F21113ADF80430E6
:10A370009DF80630CDF838A001220DF1080A62F3ED
:10A3800042030021032250468DF8063000F0EAFA1D
:10A3900016B111238DF8083015B111238DF809304D
:10A3A0009DF80A3004F0010423F01F0344F0040474
:10A3B0001C431422002104A88DF80A4000F0D2FAB0
:10A3C00003ABCDE9043A0023ADF81A30199B08938A
:10A3D000B88AADF8189008F1020304AA09A9ADF8EB
:10A3E0001C90FFF74FFC20B1034A4FF47571FCF746
:10A3F000FCFA10B0BDE8F087C82E0300C0884B8877
:10A40000C31A58425841704700B591B0FFF7C6FED5
:10A410003C22002101A800F0A5FA154A02238DF87C
:10A420000430062302F155018DF807301F23C2F8CE
:10A430003412A2F8383201A802F50E72FEF74CFB76
:10A4400020B10C4A40F2CB41FCF7CFFA0A4A02F5A0
:10A45000FC7102F11800FFF7FFFB20B1054A40F242
:10A46000CF41FCF7C2FAFFF787FE11B05DF804FB9D
:10A47000F0B00020C82E03002CB100200C4B1B783C
:10A48000062B10D10B4B1B681A070CD10A4B18680E
:10A4900000F0F003302B08D000F0E000A0F1400302
:10A4A000584258417047002070470120704700BF54
:10A4B000E00F00F0E40F00F0E80F00F0094B1B780C
:10A4C000062B0CD1084B1B681A0708D1074B1868DC
:10A4D00000F0F000A0F130035842584170470020CE
:10A4E000704700BFE00F00F0E40F00F0E80F00F04D
:10A4F00008B5FFF7C3FF28B17D4B7E4A1B68C3F345
:10A5000004231360FFF7DAFF10B17B4B7B4A1A601C
:10A51000FFF7B4FF28B17A4B7A4A1B68C3F3423382
:10A520001360FFF7CBFF20B1774AD36823F0807325
:10A53000D360FFF7A3FF40B14FF080430022C3F880
:10A540000C21C3F81021C3F83825FFF7B7FF10B16D
:10A550006E4B03221A60FFF7B1FF40B16C4B05222E
:10A560001A6001229A6700229A603F225A60694B62
:10A570001B78062B50D1684B1B6819074CD1674BD1
:10A580001B6803F0F003502B46D14FF08052644B10
:10A59000D2F80414C3F82015D2F80814C3F824150F
:10A5A000D2F80C14C3F82815D2F81014C3F82C15DF
:10A5B000D2F81414C3F83015D2F81814C3F83415AF
:10A5C000D2F81C14C3F84015D2F82014C3F844156F
:10A5D000D2F82414C3F84815D2F82814C3F84C153F
:10A5E000D2F82C14C3F85015D2F83014C3F854150F
:10A5F000D2F83414C3F86015D2F83814C3F86415CF
:10A60000D2F83C14C3F86815D2F84014C3F86C159E
:10A61000D2F84424C3F87025FFF730FF28B1414B2E
:10A62000414A1B6803F04F031360FFF727FF48B14F
:10A630004FF08043D3F80024D20744BF6FF00102EB
:10A64000C3F80024394B1B68062B08D1384B1B6814
:10A65000062B01BF374A136843F480631360364A00
:10A66000D2F8883043F47003C2F88830BFF34F8FBC
:10A67000BFF36F8F4FF01023D3F80022002A03DBC3
:10A68000D3F80432002B2FDA2C4B0122C3F8042517
:10A69000D3F80024002AFBD04FF010221521C2F875
:10A6A0000012D3F80024002AFBD04FF0102315220B
:10A6B000C3F80422214B1A46D3F800140029FBD01A
:10A6C0000021C3F80415D2F80034002BFBD0BFF3EF
:10A6D0004F8F19491A4BCA6802F4E0621343CB60EA
:10A6E000BFF34F8F00BFFDE7164B174A1A6008BD36
:10A6F000240300104035014074C007400DF0ADBA8E
:10A70000440200103C050040F0ED00E0A0050040D0
:10A7100010560040E00F00F0E40F00F0E80F00F0EA
:10A7200000C0004058020010E40E0040300100104C
:10A73000340100103C17004000ED00E000E0014053
:10A740000400FA05049900200090D0030649074A46
:10A75000074B9B1A03DD043BC858D050FBDCFFF7C6
:10A76000C7FEFBF795FD000054340300A8980020B5
:10A77000C4A20020FEE7FEE7FEE7FEE7FEE7FEE7F5
:10A78000FEE7FEE7FEE7FEE7002301461A4618460D
:10A7900001F00EBE08B50021044601F03DFE044B59
:10A7A0001868C36B03B19847204606F0EFF900BF65
:10A7B0009C30030038B50A4C0A4D641BA4100AD023
:10A7C00004F18043013B05EB8305013C55F8043956
:10A7D0009847002CF9D1BDE8384007F03FB800BFDA
:10A7E000C4A20020C0A2002070B50D4E0D4D761BF6
:10A7F000B61006D00024013455F8043B9847A64211
:10A80000F9D1094E094D761B07F022F8B61006D093
:10A810000024013455F8043B9847A642F9D170BD95
:10A82000B4A20020B4A20020C0A20020B4A2002044
:10A83000844641EA000313F003036DD1403A41D34B
:10A8400051F8043B40F8043B51F8043B40F8043B0A
:10A8500051F8043B40F8043B51F8043B40F8043BFA
:10A8600051F8043B40F8043B51F8043B40F8043BEA
:10A8700051F8043B40F8043B51F8043B40F8043BDA
:10A8800051F8043B40F8043B51F8043B40F8043BCA
:10A8900051F8043B40F8043B51F8043B40F8043BBA
:10A8A00051F8043B40F8043B51F8043B40F8043BAA
:10A8B00051F8043B40F8043B51F8043B40F8043B9A
:10A8C000403ABDD2303211D351F8043B40F8043B3A
:10A8D00051F8043B40F8043B51F8043B40F8043B7A
:10A8E00051F8043B40F8043B103AEDD20C3205D34A
:10A8F00051F8043B40F8043B043AF9D2043208D042
:10A90000D2071CBF11F8013B00F8013B01D30B88B3
:10A9100003806046704700BF082A13D38B078DD091
:10A9200010F003038AD0C3F10403D21ADB071CBF63
:10A9300011F8013B00F8013B80D331F8023B20F8CD
:10A94000023B7BE7043AD9D3013A11F8013B00F806
:10A95000013BF9D20B7803704B7843708B7883708E
:10A9600060467047F0B4860746D0541E002A3CD09B
:10A97000CAB2034602E014F1FF3436D303F8012BC8
:10A980009D07F8D1032C29D9CDB245EA05250F2C16
:10A9900045EA054533D9A4F11006360903F120072D
:10A9A00007EB061703F1100242E9045542E902558C
:10A9B0001032BA42F8D1721C14F00C0F03EB0212E1
:10A9C00004F00F0613D0331F23F0030304331344A2
:10A9D00042F8045B9342FBD106F003042CB1C9B2E8
:10A9E0001C4403F8011B9C42FBD1F0BC7047344669
:10A9F0001346002CF3D1F8E714460346C2E71A4683
:10AA00002646E0E70EB400B582B003AB816853F888
:10AA1000042B019300F0A4F902B05DF804EB03B03D
:10AA2000704700BF0FB400B5074983B004AB086896
:10AA300053F8042B8168019300F092F903B05DF89C
:10AA400004EB04B0704700BF0899002000290CBF38
:10AA5000022200224FF4806300F000B82DE9F04399
:10AA6000524C256883B004460F4690461E4615B1E9
:10AA7000AB6B002B65D0B8F1020F06D0B8F1010F17
:10AA800000F29180002EC0F28E802146284602F00E
:10AA9000A1FD216B41B104F14003994202D0284647
:10AAA00002F00EFF00232363B4F90C300022A261F0
:10AAB00062601A064DD423F44A6323F00303B8F10D
:10AAC000020FA3814CD001AB6A462146284603F011
:10AAD0004BF8A3891843A08116B317B3AB6B63B3CC
:10AAE000009BB4F90C002760B3421CBF40F4006027
:10AAF000A081B8F1010F08BF40F0010083B208BF88
:10AB0000A08113F00800C4E904761ED013F0010000
:10AB100035D000207642A661A06003B0BDE8F08386
:10AB2000009E304603F098F8074660B3A38943F0CF
:10AB30008003A381AB6B002BD2D1284602F050FEDC
:10AB4000CEE7284602F04CFE95E7A06003B0BDE8D2
:10AB5000F0832169284602F0B3FEB4F90C30AAE76D
:10AB6000002004F1430243F0020300250121A381E8
:10AB7000A5602260C4E9042103B0BDE8F083A660AB
:10AB800003B0BDE8F083DDF80090B14506D048463B
:10AB900003F062F8074608B14E46C7E7B4F90C3037
:10ABA0004FF0FF30DDE74FF0FF30CFE7089900208E
:10ABB00080EA0102844612F0030F4FD111F0030F17
:10ABC00032D14DF8044D11F0040F51F8043B0BD075
:10ABD000A3F101329A4312F0803F04BF4CF8043BCA
:10ABE00051F8043B16D100BF51F8044BA3F10132D8
:10ABF0009A4312F0803FA4F101320BD14CF8043B90
:10AC0000A24312F0803F04BF51F8043B4CF8044BC0
:10AC1000EAD023460CF8013B13F0FF0F4FEA332331
:10AC2000F8D15DF8044B704711F0010F06D011F810
:10AC3000012B0CF8012B002A08BF704711F0020FFE
:10AC4000BFD031F8022B12F0FF0F16BF2CF8022BE9
:10AC50008CF8002012F47F4FB3D1704711F8012B0C
:10AC60000CF8012B002AF9D1704700BF000000004A
:10AC700000000000000000000000000000000000D4
:10AC800090F800F06DE9024520F007016FF0000C2C
:10AC900010F0070491F820F040F049804FF00004D4
:10ACA0006FF00700D1E9002391F840F000F10800AF
:10ACB00082FA4CF2A4FA8CF283FA4CF3A2FA8CF3E7
:10ACC0004BBBD1E9022382FA4CF200F10800A4FA4E
:10ACD0008CF283FA4CF3A2FA8CF3E3B9D1E90423A2
:10ACE00082FA4CF200F10800A4FA8CF283FA4CF3D9
:10ACF000A2FA8CF37BB9D1E9062301F1200182FA93
:10AD00004CF200F10800A4FA8CF283FA4CF3A2FA98
:10AD10008CF3002BC6D0002A04BF04301A4612BAA6
:10AD2000B2FA82F2FDE8024500EBD2007047D1E9A9
:10AD3000002304F00305C4F100004FEAC50514F038
:10AD4000040F91F840F00CFA05F562EA05021CBF09
:10AD500063EA050362464FF00004A9E70000000023
:10AD60002DE9F04FBFB01C4604919146054608906E
:10AD700002F0F2FE036811931846FFF781FF099471
:10AD80000F901DB1AB6B002B00F067830499B1F9F4
:10AD90000C2093B29E04084607D4496E42F4005337
:10ADA00021F40051838141669BB21D0740F1D080A0
:10ADB000049A1269002A00F0CB8003F01A030A2BD0
:10ADC00000F0D4809FED9A7B00238DED0C7B0E93D9
:10ADD000CDE922331093129305932EAB21939A461B
:10ADE00099F80030002B00F0DD80252B00F0BE86A6
:10ADF0004D4603E0252B00F0C78025466B786C1C80
:10AE0000002BF7D1B4EB090600F0CC80DDE922324B
:10AE100001333244072BCAF80090CAF80460CDE928
:10AE2000223200F3B6800AF1080A059A6B783244A0
:10AE30000592002B00F0B680002367788DF867300C
:10AE40001A46194606939B4604F101094FF0FF3656
:10AE500009F10109A7F12003582B00F20283DFE872
:10AE600013F0DA0200030003E20200030003000310
:10AE70000003000300032902BC020003B702C10261
:10AE80000003C000B100B100B100B100B100B100D9
:10AE9000B100B100B1000003000300030003000390
:10AEA000000300030003000300039D02510200039E
:10AEB000510200030003000300034C0200030003DF
:10AEC00068000003000300030003000359000003AF
:10AED0000003340200030003000300030003000327
:10AEE0000003000300030003AE017401510251028C
:10AEF00051026F01740100030003620100034C0161
:10AF00006A001C0117010003ED0000035B00000351
:10AF10000003C5004BF0100B1BF0200F00F09282D5
:10AF2000099C073424F00703F3E802450993012341
:10AF3000C3E04BF0100B1BF0200300F07982099C5A
:10AF4000073424F00703F3E8024509930023B4E033
:10AF50000499089801F0C4F9002841F01381049B7A
:10AF60009B8903F01A030A2B7FF42CAF049BB3F9DF
:10AF70000E30002BFFF626AF23464A460499089868
:10AF800001F078F9059019E0B4EB09063FF454AFED
:10AF90003CE721AA0499089803F0E0FE48B90DF1B6
:10AFA000B80A42E7239B23B10898049921AA03F029
:10AFB000D5FE049B9B895A0601F1E48005983FB0B9
:10AFC000BDE8F08FA7F13003002019F8017B00EBFA
:10AFD000800003EB4000A7F13003092BF5D9069060
:10AFE00038E74BF0800B99F8007031E7002A41F008
:10AFF000B180114B10931BF0200F00F06F81099C62
:10B00000073424F00703F3E8024509931BF0010F0E
:10B0100000F0388254EA050300F0348230238DF8C2
:10B0200068308DF869704BF0020B022345E000BFD9
:10B030000000000000000000E4300300099C54F808
:10B04000043B0A9300258DF86750002B00F07F86A3
:10B05000711C00F05387324629460A9803F0C0F865
:10B06000002801F059800A9BC31A07932E4623EA51
:10B07000E3739DF867800994CDF808B003930B96AD
:10B08000B8F1000F00F0AD80039B01330393A8E0FB
:10B090004BF0200B99F80070DAE6099C54F8043B59
:10B0A000099447F630021C46B74B1093ADF8682060
:10B0B0004BF0020B0025022378274FF000088DF893
:10B0C0006780721C00F0E2812BF08002029254EA49
:10B0D000050240F0D981002E40F01284002B40F090
:10B0E000DC841BF00103079300F0498530238DF8C1
:10B0F000B7300DF1B7030A9359E0002A41F03280CE
:10B10000099A1BF0200F52F8043B099240F03B854E
:10B110001BF0100F40F054861BF0400F00F05086DB
:10B12000059A1A805CE699F800706C2F03BF99F8B5
:10B1300001704BF0200B09F101094BF0100B87E671
:10B140004BF0400B99F8007082E6002A41F0128023
:10B150001BF0200F00F02B81099C073424F007031B
:10B160001946F1E80223099114461D46002A73F19D
:10B170000003C0F2F184731C9DF8678008D02BF0A7
:10B180008003029354EA050300F08484DDF808B0DC
:10B19000002D08BF0A2C80F054840123303407931B
:10B1A0000DF1B7038DF8B740CDF808B00A93079BAF
:10B1B000B342B8BF3346039300230B9360E7099C67
:10B1C000002354F8042B8DF890208DF8673001226D
:10B1D00024AB0392099407920A930026CDF808B095
:10B1E0000B96029B13F0020302D0039A02320392E1
:10B1F000029A239C12F0840B05D1069A0399551AE2
:10B20000002D00F3E8829DF8672072B1229A013286
:10B2100001340DF167000121072ACDE92224CAE992
:10B22000000100F31A830AF1080A6BB1229B013373
:10B2300002341AA90222072BCDE92234CAE90012EE
:10B2400000F319830AF1080ABBF1800F00F0A8810E
:10B25000079BF61A002E00F3EC81029BDB0500F140
:10B260004281229B0A9ACAF80020079ACAF8042051
:10B2700001331444072B2394229300F34E820AF1E6
:10B28000080A029B590705D5069B039A9D1A002DB3
:10B2900000F3FD82DDE9053203998A42ACBF9B18B9
:10B2A0005B180593002C40F0FE81002322930DF1E2
:10B2B000B80A95E5099B99F8007053F8040B0690BD
:10B2C0000028C0F216850993C2E5002A40F056878F
:10B2D0002E4B10931BF0200F7FF491AE099B1BF0B7
:10B2E000100F53F8044B099340F02B841BF0400FD0
:10B2F00000F02784A4B2002588E64BF0080B99F8EB
:10B300000070A5E5002A40F02987099C073424F045
:10B310000703B3EC027B55EC174B099325F0004370
:10B3200015938DED147ADDE914014FF0FF32184BBF
:10B330008DED0C7B06F082F8002840F02B844FF056
:10B34000FF32134BDDE9140106F05AF8002840F0F3
:10B350002184002200232046294606F047F80028D1
:10B3600040F03E869DF867800A4A0B4B0321002679
:10B370002BF08000472FC8BF1A46039102900A9213
:10B3800007910B967CE600BFE4300300D030030049
:10B39000FFFFEF7FC0300300C4300300002A40F0FD
:10B3A000E5864BF0100B1BF0200F7FF4D5AE099B08
:10B3B0001BF0100F53F8044B099340F0C5831BF0AA
:10B3C000400F00F0C18324B2E51722462B46CDE69C
:10B3D00099F800704BF0040B3AE599F800700122DF
:10B3E0002B2135E5484610F8017B2A2F00F02387F2
:10B3F000A7F13003092B81464FF000063FF62AAD36
:10B4000019F8017B06EB860603EB4606A7F130032D
:10B41000092BF5D91EE599F8007000297FF418ADC5
:10B420000122202114E54BF0010B99F800700FE583
:10B43000099A52F8044B09921BF0100200F0518453
:10B4400000253AE6099B1BF0100F53F8044B0993B3
:10B4500000F03F84002501232FE6089802F0C0F990
:10B4600094E4002A40F0D685002F3FF49BAD0023E2
:10B4700001228DF8673024AB03928DF8907007920B
:10B480000A93AAE6022318E6DDF808B0012B3FF480
:10B490007FAE022B00F03C822EA900E01146E208AC
:10B4A00042EA4572E80804F00703054614463033C3
:10B4B00054EA050001F8013C01F1FF32EED11BF026
:10B4C000010F0A9200F0DF82302B00F04B840A9AC1
:10B4D000CDF808B03023023902F8013C2EAB5B1ADC
:10B4E00007930A9163E6652F40F32381002200232E
:10B4F000DDE90C0105F070FF002800F02282229B9C
:10B50000BC4ACAF80020013301340122072BCDE9DF
:10B510002234CAF8042000F39D840AF1080A1B9B18
:10B520000E9A239C934280F22483229B119ACAF89C
:10B5300000200F9ACAF8042001331444072BCDE9E8
:10B54000223400F3F7830AF1080A0E9B5D1E002DDA
:10B550007FF797AE102D229ADFF89CB240F37084EB
:10B560001026089FDDF8108005E00AF1080A103D5A
:10B57000102D40F3658401321034072ACDE92224CE
:10B58000CAE900B6F1DD21AA4146384603F0E6FBE0
:10B5900000287FF40EADDDE922240DF1B80AE6E7BC
:10B5A000069B039A9D1A002D7FF752AE102D229A0A
:10B5B000DFF844B22DDD584653462146CA46BB4605
:10B5C000B1464FF01008089C049E074604E0103D69
:10B5D000102D03F1080315DD01321031072ACDE9E2
:10B5E0002221C3E90078F2DD21AA3146204603F08A
:10B5F000B5FB00287FF4DDAC103D102DDDE92221E4
:10B600002EABE9DC4E46D1469A463B460C465F4699
:10B610009B4601322C44072ACDE92224CAE900B511
:10B6200000F32484079BF61A002E0AF1080A7FF71C
:10B6300014AE102E229ADFF8C0B128DD59462346F9
:10B64000BB461025DDF82080049C0F4604E0103E28
:10B65000102E0AF1080A16DD01321033072ACDE94F
:10B660002223CAE90075F2DD21AA2146404603F0F3
:10B6700075FB00287FF49DAC103E102EDDE92223DF
:10B680000DF1B80AE8DC1C463B465F469B4601329A
:10B690003444072ACDE92224CAE900B600F34482E3
:10B6A0000AF1080AD9E521AA0499089803F056FB83
:10B6B00000283FF4FAAD7CE421AA0499089803F02D
:10B6C0004DFB00287FF475AC1B9B239C0DF1B80A41
:10B6D000002B40F0D883029B0E9A03F00103134322
:10B6E0003FF4CFAD229A119BCAF800300F9BCAF8E5
:10B6F000043001321C44072A2394229200F39E84D2
:10B700000AF1080A0E9B0A9901321C44072ACDE966
:10B710002224CAE900137FF7B2AD21AA0499089840
:10B7200003F01CFB00287FF444AC239C0DF1B80A05
:10B73000A7E50E9A229B012A04F1010403F10105F9
:10B740000AF1080640F3AF8101230A9ACAF80020E3
:10B75000072DCDE92254CAF8043000F345830F9B2E
:10B76000119A01351C44072DCDE92254C6E9002366
:10B7700000F32E8308366B1C1F46B8460E9F0793B6
:10B7800000220023DDE90C0106F1080A013F05F063
:10B7900023FE002840F09B810A9B776001333C44E4
:10B7A000B8F1070F33602394CDF8888000F3B2829C
:10B7B00006F1100305F1020856469A46129A726085
:10B7C00014441DABB8F1070F2394CDF88880336083
:10B7D0007FF757ADA1E7102D229A31DD5146204663
:10B7E000CA464FF01008B14613932E46089C049D9C
:10B7F00009E000BF00310300B0300300103E102EFE
:10B8000001F1080116DD0132C54B1030072ACDE9E0
:10B810002220C1E90038F1DD21AA2946204603F0A3
:10B820009DFA00287FF4C5AB103E102EDDE92220E2
:10B830002EA9E8DC139B354604464E46D1468A467F
:10B840000132B7492C44072ACDE92224CAE9001560
:10B8500000F3D6820AF1080AD5E421AA04990898CF
:10B86000139303F07BFA00287FF4A3AB239C139B74
:10B870000DF1B80AD9E421AA0499089803F06EFAE8
:10B8800000287FF496AB239C0DF1B80ADCE4102D60
:10B89000229B21DD1026089FDDF8108004E0103D7A
:10B8A000102D0AF1080A17DD01339D4A1034072BC9
:10B8B000CDE92234CAE90026F1DD21AA4146384605
:10B8C00003F04CFA00287FF474AB103D102DDDE935
:10B8D00022340DF1B80AE7DC0133914A2C44072BDE
:10B8E000CDE92234CAE900257FF7D4AC21AA049916
:10B8F000089803F033FA00287FF45BAB239CC9E47B
:10B90000012B00F0B583022BDDF808B07FF4C4AD45
:10B91000DDF840C02EAA230904F00F0043EA0573A6
:10B9200029091C460D461CF8003002F8013D54EA76
:10B930000503F0D12EAB9B1A0A92CDF808B00793FD
:10B9400035E41B9B002B40F36A820E9B0B9A9342BB
:10B95000A8BF1346002B1D460EDD229B0A9ACAF88B
:10B96000002001332C44072B2394CAF8045022935F
:10B9700000F3B5830AF1080A0B9B002DA8BF5B1BDF
:10B98000002B1D4600F3F6811B9A0E9B9A4280F213
:10B99000B581229B1199CAF800100F99CAF80410BA
:10B9A00001330C44072B2394229300F326830AF1DE
:10B9B000080A0B990E9B9142A3EB020380F20482CA
:10B9C0001D46002D10DD229ACAF80450DDE90A1048
:10B9D000013201442C44072ACAF80010CDE9222480
:10B9E00000F38B830AF1080A002DACBF5D1B1D46D6
:10B9F000002D7FF746AC102D229ADFF828B140F3D6
:10BA00001F821026089FDDF8108005E00AF1080A61
:10BA1000103D102D40F3148201321034072ACDE975
:10BA20002224CAE900B6F1DD21AA4146384603F0D6
:10BA300095F900287FF4BDAADDE922240DF1B80AAA
:10BA4000E6E72EABCDF80890C146B0461E4601E0B1
:10BA500004460D460A2200232046294605F07CFDB7
:10BA6000303206F8012D00230A222046294605F02F
:10BA700073FD002D08BF0A2CEAD232460A964646CC
:10BA8000C846DDF80890CDF808B02EAB9B1A079396
:10BA9000FFF78DBB002E40F0EB8200262EAB079601
:10BAA0000A93FFF784BB029AD0073FF54DAE0122FF
:10BAB0000A99CAF80010072DCDE92254CAF80420CB
:10BAC00000F3288103F102080AF1100A76E6002F3C
:10BAD0007FF774AE102FDFF84CB040F3AA832346F3
